:100000000C9458000C9480000C9480000C94800098
:100010000C9480000C9480000C9480000C94800060
:100020000C9480000C9480000C9480000C94800050
:100030000C9480000C9480000C9480000C94800040
:100040000C947B030C9480000C94EB030C94C5037C
:100050000C9480000C9480000C9480000C94800020
:100060000C9480000C948000000000002300260007
:10007000290000000000250028002B0000000000DF
:10008000240027002A0004040404040404040202D7
:100090000202020203030303030301020408102007
:1000A00040800102040810200102040810201D04F1
:1000B00011241FBECFEFD8E0DEBFCDBF11E0A0E01E
:1000C000B1E0E2EFFDE002C005900D92AC32B10765
:1000D000D9F721E0ACE2B1E001C01D92AE3FB2071A
:1000E000E1F710E0C8E5D0E004C02197FE010E94CE
:1000F000EC06C735D107C9F70E9450040C94F706E7
:100100000C940000CF92DF92EF92FF920F931F9317
:10011000CF93DF936C017A018B01C0E0D0E0CE1564
:10012000DF0581F0D8016D918D01D601ED91FC9133
:100130000190F081E02DC6010995892B11F02196DF
:10014000EECF7E01C701DF91CF911F910F91FF90FC
:10015000EF90DF90CF900895089580E090E00895AB
:10016000FC01538D448D252F30E0842F90E0821BBD
:10017000930B541710F0CF96089501970895FC0142
:10018000918D828D981761F0828DDF01A80FB11DCE
:100190005D968C91928D9F5F9F73928F90E00895F2
:1001A0008FEF9FEF0895FC01918D828D981731F0AC
:1001B000828DE80FF11D858D90E008958FEF9FEF00
:1001C0000895FC01918D228D892F90E0805C9F4FD6
:1001D000821B91098F73992708958AE491E00E9408
:1001E000E10021E0892B09F420E0822F0895FC0131
:1001F000848DDF01A80FB11DA35ABF4F2C91848DB0
:1002000090E001968F739927848FA689B7892C93E4
:10021000A089B1898C91837080648C93938D848D37
:10022000981306C00288F389E02D80818F7D80833A
:100230000895EF92FF920F931F93CF93DF93EC01FA
:1002400081E0888F9B8D8C8D981305C0E889F98992
:10025000808185FD26C0F62E0B8D10E00F5F1F4FAD
:100260000F731127E02E8C8DE8120CC00FB607FC1F
:10027000FACFE889F989808185FFF5CFCE010E9408
:10028000F700F1CF8B8DFE01E80FF11DE35AFF4F10
:10029000F0829FB7F8940B8FEA89FB898081806296
:1002A0000AC09FB7F894EE89FF896083E889F989CD
:1002B00080818370806480839FBF81E090E0DF91C4
:1002C000CF911F910F91FF90EF900895CF93DF93FF
:1002D000EC01888D8823C9F0EA89FB89808185FD3E
:1002E00005C0A889B9898C9186FD0FC00FB607FC9F
:1002F000F5CF808185FFF2CFA889B9898C9185FFE0
:10030000EDCFCE010E94F700E7CFDF91CF910895A6
:1003100080E090E0892B29F00E94ED0081110C947F
:1003200000000895EF920F931F93F901DA013C91B9
:100330002E2D209532233C9330813E293083FC01C1
:10034000D80198E080E030E020E04C914E2189F027
:100350002A95D9F720E04C914E2159F02A95D9F7EA
:1003600020E84C914E2129F02A95D9F73A9561F76A
:1003700017C047E04A95F1F7000031E0550F4C9166
:100380004E2109F051609A9529F45193839598E094
:10039000681731F020E84C914E2111F72A95D9F7D2
:1003A0001F910F91EF9008950F931F93F9012081F2
:1003B000202B2083DA012C91202B2C93208140814B
:1003C000202B30E010E00095109550E00423152319
:1003D000DC015D9148E00083550F40F474E07A95AC
:1003E000F1F720837AE07A95F1F705C07EE07A95FF
:1003F000F1F7000020834A9529F073E07A95F1F730
:100400000000E9CF6A9529F071E07A95F1F70000D4
:10041000E0CF72E07A95F1F700000000008374E00D
:100420007A95F1F70000000020831F910F91089545
:100430007F928F929F92AF92BF92CF92DF92EF9274
:10044000FF920F931F93CF93DF93DB01642F59012A
:10045000F02E282F30E0F901E656FF4FE490F90125
:10046000EA57FF4F249130E0220F331FF901E4587F
:10047000FF4FC591D491F901EE58FF4FC590D4902C
:10048000F901E859FF4F859094907FB6F8940E2DAE
:100490009601AE01CD010E94D40184019601AE0106
:1004A0006F2DC5010E9492017FBEDF91CF911F91F8
:1004B0000F91FF90EF90DF90CF90BF90AF909F9003
:1004C0008F907F9008953F924F925F926F927F92AC
:1004D0008F929F92AF92BF92CF92DF92EF92FF9254
:1004E0000F931F93CF93DF9300D01F92CDB7DEB74A
:1004F0003B014A01290190E0FC01E656FF4FF490D0
:10050000FC01EA57FF4F849190E0880F991FFC018E
:10051000E458FF4FC590D490FC01EE58FF4FA590D2
:10052000B490FC01E859FF4F059114913FB6F8943F
:1005300019821A821B82EF2C9501A60163E0CE017D
:1005400001960E9492018130B9F48981811109C01C
:100550000F2D9501A60163E0C3010E94D40181E043
:100560002BC0813411F50F2D9501A6016AE0C4015D
:100570000E94D40182E020C08330B9F489818034A4
:10058000A1F48A81833089F40F2D9501A60168E0DA
:10059000C2010E94D4018B818370813041F082308E
:1005A00041F0833041F486E007C080E005C084E07C
:1005B00003C085E001C083E03FBE0F900F900F9015
:1005C000DF91CF911F910F91FF90EF90DF90CF902F
:1005D000BF90AF909F908F907F906F905F904F9063
:1005E0003F900895009769F0FC0101900020E9F721
:1005F0003197AF01481B590BBC018AE491E00C9480
:10060000820080E090E008958F929F92AF92BF9217
:100610000F931F93CF93DF93CDB7DEB7A1970FB69C
:10062000F894DEBF0FBECDBF19A2423008F44AE0F5
:100630008E010F5D1F4F842E912CA12CB12CA50192
:1006400094010E94B606E62FB901CA0101501109B2
:10065000EA3014F4E05D01C0E95CD801EC93232B8F
:10066000242B252B61F7C8010E94F202A1960FB638
:10067000F894DEBF0FBECDBFDF91CF911F910F91D8
:10068000BF90AF909F908F90089587E291E00C9477
:10069000F202CF92DF92EF92FF92CF93DF936C0141
:1006A000990FEE08FF08F7FE19C06DE28AE491E0A9
:1006B0000E941901EC0166277727CB016C197D098F
:1006C0008E099F094AE00E9404038C0F9D1FDF9151
:1006D000CF91FF90EF90DF90CF9008954AE0C7014F
:1006E000B601DF91CF91FF90EF90DF90CF900C9407
:1006F00004030E94F2061F920F920FB60F9211246C
:100700002F933F938F939F93AF93BF938091460115
:1007100090914701A0914801B09149013091450164
:1007200023E0230F2D3720F40196A11DB11D05C034
:1007300026E8230F0296A11DB11D20934501809349
:10074000460190934701A0934801B09349018091DD
:10075000410190914201A0914301B0914401019661
:10076000A11DB11D8093410190934201A0934301CB
:10077000B0934401BF91AF919F918F913F912F9181
:100780000F900FBE0F901F9018951F920F920FB6EB
:100790000F9211242F933F934F935F936F937F9307
:1007A0008F939F93AF93BF93EF93FF938AE491E06E
:1007B0000E94F700FF91EF91BF91AF919F918F91B0
:1007C0007F916F915F914F913F912F910F900FBE4D
:1007D0000F901F9018951F920F920FB60F92112431
:1007E0002F938F939F93EF93FF93E0915A01F09192
:1007F0005B018081E0916001F091610182FD12C096
:100800009081809163018F5F8F73209164018217C3
:1008100051F0E0916301F0E0E65BFE4F958F80932D
:10082000630101C08081FF91EF919F918F912F9182
:100830000F900FBE0F901F901895EAE4F1E013821D
:10084000128288EE93E0A0E0B0E084839583A683D3
:10085000B78389E191E09183808385EC90E095876F
:10086000848784EC90E09787868780EC90E0918B7A
:10087000808B81EC90E0938B828B82EC90E0958B67
:10088000848B86EC90E0978B868B118E128E138E64
:10089000148E83E08093FD0182E08093E701089548
:1008A000CF93DF93CDB7DEB768970FB6F894DEBF6E
:1008B0000FBECDBF789484B5826084BD84B581605D
:1008C00084BD85B5826085BD85B5816085BD80911B
:1008D0006E00816080936E00109281008091810093
:1008E000826080938100809181008160809381008B
:1008F000809180008160809380008091B10084604D
:100900008093B1008091B00081608093B0008091AD
:100910007A00846080937A0080917A00826080936C
:100920007A0080917A00816080937A0080917A00C9
:10093000806880937A001092C1001092400110925A
:100940003F01E0915A01F0915B0182E08083E091E8
:100950005601F09157011082E0915801F091590130
:1009600080E1808310926201E0915E01F0915F016D
:1009700086E08083E0915C01F0915D01808180617F
:100980008083E0915C01F0915D01808188608083CB
:10099000E0915C01F0915D01808180688083E0914D
:1009A0005C01F0915D0180818F7D808311E480E4A2
:1009B000D82E95E0E92EF12C8091E8019091E90183
:1009C000892BB9F09091EA0193FB992790F98091D6
:1009D000FD01D98A23E02A8B9B8B08E025EF31E0CB
:1009E00043E0BE016F5E7F4F0E9418028830F1F035
:1009F00021C08091FD01198A03E028EE31E041E039
:100A0000BE016F5E7F4F0E941802833099F480917F
:100A1000FD01198B0AE02BEE31E041E0BE016F5E73
:100A20007F4F0E9418028A3069F20AC08091F50156
:100A300085FF06C01092E8011092E9011092EA01C8
:100A40004091EA0188E0E5EFF1E0DE0111960190C6
:100A50000D928A95E1F788E0FE013196DE01199644
:100A600001900D928A95E1F788E0FE013996DE014A
:100A7000519601900D928A95E1F7FB85EC857D8575
:100A80006E85AF85B8899989892F8170882E80936A
:100A90003E0191FB992490F890923D0192FBAA248B
:100AA000A0F8A0923C0193FB552750F950933B01CD
:100AB0008A8984FBBB24B0F8B0923A0194FB3327B7
:100AC00030F93093330183FB002700F9009336019E
:100AD000982F91709093370181FBCC24C0F8C0927D
:100AE000340182FB222720F92093350181E0AD38C3
:100AF00008F480E08093390181E0BD3808F480E09B
:100B000080933801A0932D01B0932E01F093320110
:100B1000E09331017093300160932F0143FB442730
:100B200040F940932C0180910D0180FA80F990FAF0
:100B300081F9A0FA82F950FB83F950910E01B0FAC5
:100B400054F930FB84F980930D01852F8E7F892B1A
:100B5000C0FA81F920FB82F900FB83F980930E0132
:100B600021E0B53608F420E0822F819580931401AE
:100B700091E0A53608F490E0892F819580931301C8
:100B800080910E0120FB85F990FB86F980930E0180
:100B9000F0930F01E0931001709311016093120123
:100BA0008091EA0140FB83F98093EA0180910D0175
:100BB00085FD35C00FB7F8942DE031E043E051E0FA
:100BC00060E071E08091E7010E946302813051F49E
:100BD0002DE031E043E051E060E071E08091E70119
:100BE0000E946302823051F42DE031E043E051E095
:100BF00060E071E08091E7010E9463020FBF8330E3
:100C000021F480910201877F05C0843031F4809106
:100C1000020188608093020102C0853091F3209127
:100C20003F0130914001C901B7010E94A206892B02
:100C300009F07FC080913E0190E00E9449030E942C
:100C4000450380913D0190E00E9449030E944503C5
:100C500080913C0190E00E9449030E9445038091ED
:100C60003B0190E00E9449030E94450380913A01B4
:100C700090E00E9449030E9445038091390190E071
:100C80000E9449030E9445038091380190E00E9430
:100C900049030E9445038091370190E00E94490377
:100CA0000E9445038091360190E00E9449030E9412
:100CB00045038091350190E00E9449030E9445035D
:100CC0008091340190E00E9449030E944503809185
:100CD000330190E00E9449030E9445036091320174
:100CE00070E080E090E04AE00E9404030E94450327
:100CF0006091310170E080E090E04AE00E940403DE
:100D00000E9445036091300170E080E090E04AE08D
:100D10000E9404030E94450360912F0170E080E06F
:100D200090E04AE00E94040389E291E00E94F2020E
:100D300006C02F5F3F4F3093400120933F010E9438
:100D400088013ACE97FB072E16F4009407D077FD62
:100D500009D00E94D80607FC05D03EF490958195F5
:100D60009F4F0895709561957F4F0895A1E21A2EC7
:100D7000AA1BBB1BFD010DC0AA1FBB1FEE1FFF1F3F
:100D8000A217B307E407F50720F0A21BB30BE40B8F
:100D9000F50B661F771F881F991F1A9469F76095D6
:100DA0007095809590959B01AC01BD01CF01089590
:100DB000AA1BBB1B51E107C0AA1FBB1FA617B70781
:100DC00010F0A61BB70B881F991F5A95A9F780959D
:100DD0009095BC01CD010895EE0FFF1F0590F49191
:100DE000E02D099481E090E0F8940C94F706F894D3
:020DF000FFCF33
:100DF2000900030080808080801F1F000000808027
:100E02008080801F1F0000000019018200B0006670
:0C0E120001E100BF00D3002C000D0A001D
:00000001FF
